:020000040800F2
:10000000208000209D010008119A00081588000832
:100010003D960008A10B0008311D010800000000FA
:1000200000000000000000000000000091F5000842
:10003000C940000800000000319D0008B5F5000827
:10004000B7010008B7010008B7010008B7010008B0
:10005000B7010008B7010008B7010008B7010008A0
:10006000B7010008B7010008ED400008B70100081B
:10007000392E0008B7010008B7010008B7010008D1
:10008000B7010008B7010008B7010008B701000870
:10009000A50B0008B7010008B7010008F9400008E7
:1000A000B7010008B7010008B7010008B701000850
:1000B000B7010008C9F60008DDF60008B70100081E
:1000C000B7010008B7010008B7010008B701000830
:1000D000B7010008D91A0108B7010008E91A010898
:1000E000B7010008B7010008B7010008B701000810
:1000F000B7010008B7010008B7010008B701000800
:10010000B7010008B7010008F1F60008B7010008C0
:10011000B7010008B701000805F7000819F7000843
:10012000492E0008293F0008393F0008493F0008D0
:10013000B7010008B7010008B7010008B7010008BF
:10014000B50B0008B7010008B7010008B7010008A7
:10015000B7010008593F0008693F0008151C010855
:10016000B7010008B7010008B7010008B70100088F
:10017000B7010008B7010008B7010008000000003F
:10018000B7010008B7010008DFF80CD000F048FB09
:10019000004800478D26010820800020064880473F
:1001A00006480047FEE7FEE7FEE7FEE7FEE7FEE75C
:1001B000FEE7FEE7FEE7FEE7B5F600088901000866
:1001C0002DE9F05F0546002092469B46884606468C
:1001D000814640241BE0284641464746224600F01F
:1001E00051FA53465A46C01A914110D31146184647
:1001F000224600F038FA2D1A67EB01084F462246D6
:100200000120002100F02FFA17EB00094E41201EBB
:10021000A4F10104DFDC484631462A464346BDE8E6
:10022000F09F40EA01039B0703D009E008C9121FB1
:1002300008C0042AFAD203E011F8013B00F8013BA0
:10024000521EF9D27047D2B201E000F8012B491ECC
:10025000FBD270470022F6E710B513460A46044663
:100260001946FFF7F0FF204610BD2DE9FE4F8046EE
:1002700081EA0300C00F0C46009021F0004123F0FA
:100280000045B8EB0200A94105D240462146904600
:100290001C460B46024623F00040104347D0270D72
:1002A000C7F30A00C3F30A510290401A0190402894
:1002B0006BDAC3F3130040F4801B0098924620B120
:1002C0000023D2EB030A63EB0B0B01985946C0F1F4
:1002D0004002504600F0C7F906460D4650465946C2
:1002E000019A00F0DFF910EB08006141002487EA71
:1002F000115284EAE7731A4340D0009A62B3019A1C
:10030000012A4FEA075215DC001B61EB02014FF096
:10031000004202EA0752CDE90042001C41F580117B
:1003200032462B4600F016FA03B0BDE8F08F404687
:100330002146F9E7001B61EB0201001C41F5801327
:1003400000185B412018A2F5001747EB030140EAB3
:10035000D570B6196D4111E06D084FEA360645EAD1
:10036000C0754FEA0752001B61EB0201001C41F50A
:10037000801149084FEA30000019514132462B469E
:1003800003B0BDE8F04F00F0D6B90098012240005C
:100390000023D0EB020263EBE073009821464FEAA2
:1003A000E074B8EB000061EB0401E9E783F000437F
:1003B0005BE781F0004158E72DE9FE4F81EA030435
:1003C00004F0004421F0004100944FF0000B23F0B2
:1003D000004350EA01045ED052EA03045BD0C3F349
:1003E0000A54C1F30A552C44A4F2F3340194A0FB3F
:1003F0000254C1F3130141F48011C3F3130343F416
:10040000801301FB024400FB034E840A970A44EA6E
:10041000815447EA8357A4FB076802958D0A05FBC0
:1004200007854FEA932C04FB0C542705029D4FEAE5
:10043000065847EA1637B5EB08056EEB070C870E32
:10044000920E47EA811742EA8312A7FB0201B6EB3C
:100450000B0164EB00042B0D43EA0C335E1844EBF4
:100460001C50DA465146E7FB0201C5F313044FEA7C
:100470000B3343EA14534FEA0432019C43EA060368
:10048000A4F10C040294009CCDE900B400F062F9E0
:1004900003B0BDE8F08F00200146F9E72DE9F04DEB
:1004A00081EA030404F0004B21F0004514464FF0AC
:1004B000000A23F0004150EA050220D054EA01026C
:1004C0001DD0C5F30A570246C5F31303C1F3130049
:1004D000C1F30A5640F4801543F48013A7EB0608D5
:1004E000101BD64608F2FD3873EB050002D308F165
:1004F000010801E092185B41B8F1000F03DA002017
:100500000146BDE8F08D00204FF480110646844678
:100510000EE0171B73EB050705D3121B63EB0503F6
:1005200006434CEA010C49084FEA300092185B413F
:1005300050EA0107EDD152EA030012D082EA04002A
:1005400083EA0501084305D0101BAB4106D2012206
:10055000002306E000224FF0004302E06FF00102AA
:1005600053101AEB06004CEB085110EB0A0041EB5C
:100570000B01BDE8F04D00F0DEB830B5041E71F19E
:10058000000404DB4FF00044404264EB0101141E00
:1005900073F1000405DB1C464FF00043524263EB4D
:1005A0000403801A994101D3012030BD002030BDE1
:1005B00030B5041E71F1000404DB4FF000444042EA
:1005C00064EB0101141E73F1000405DB1C464FF0BF
:1005D0000043524263EB0403801A994101D2012087
:1005E00030BD002030BD0EB5C10F80EAE070084478
:1005F000CA07002140F233438DE80E000A460B463D
:1006000000F0A8F803B000BD00F0004230F0004058
:100610000AD0C10D01F56071C0F3160042EA015124
:10062000C20840071143704700200146704701F09F
:10063000004330B421F0004150EA010206D00A0D17
:10064000A2F56072C1F31301002A02DC30BC002065
:100650007047440F44EAC104C100E01830BC00EB0D
:10066000C25000F031B8202A04DB203A00FA02F12F
:10067000002070479140C2F1200320FA03F3194390
:1006800090407047202A04DB203A21FA02F0002132
:10069000704721FA02F3D040C2F120029140084392
:1006A00019467047202A06DBCB17203A41FA02F0A0
:1006B00043EAE07306E041FA02F3D040C2F12002BF
:1006C00091400843194670470029A8BF7047401C55
:1006D000490008BF20F00100704710B4B0FA80FC58
:1006E00000FA0CF050EA010404BF10BC704749B195
:1006F000CCF1200421FA04F411FA0CF118BF012105
:1007000021430843A3EB0C01CB1D4FEA00614FEAE4
:10071000102042BF002010BC704700EBC3501044B3
:100720000029A4BF10BC7047401C490008BF20F03E
:10073000010010BC704710B5141E73F1000408DAF4
:10074000401C41F1000192185B411A4301D120F095
:10075000010010BD2DE9F04D92469B4611B1B1FA52
:1007600081F202E0B0FA80F220329046FFF77BFF80
:1007700004460F4640EA0A0041EA0B0153465A4636
:10078000084313D0114653EA010019D0C8F14002C2
:100790005046FFF777FF05460E46504659464246FB
:1007A000FFF761FF084305D0012004E020463946E9
:1007B000BDE8F08D0020054346EAE0762C43374340
:1007C0000A986305E40AA0EB08000022FD0A44EA47
:1007D00047540A3002D500200146E9E70105101907
:1007E0006941DDE9084500196941BDE8F04DA2E71E
:1007F00030B5041E71F1000404DB4FF000444042A8
:1008000064EB0101141E73F1000405DB1C464FF07C
:100810000043524263EB04038B4208BF824230BD67
:10082000064C074D06E0E06840F0010394E807003D
:1008300098471034AC42F6D3FFF7AAFC6063010876
:10084000806301080EB540F2334102910021CDE9E9
:1008500000110A460B46FFF77DFF03B000BD70B5DF
:10086000C1F30A5201F000450024C1F3130140F224
:10087000FF3341F480119A4201DA002070BD40F24A
:1008800033439A42A2F2334203DC5242FFF7FAFEAC
:1008900000E090402C43F1D0404270BD81B0002078
:1008A0008DF80300FFE79DF80300032870DCFFE7E5
:1008B0009DF8030040F28411C2F2000101EB8002B6
:1008C00092ED3D0A00EB800001EB800090ED031AF1
:1008D00030EE410A9FED2F1AB4EE410AF1EE10FA04
:1008E0001BDDFFE79DF8030040F28411C2F2000116
:1008F00001EB800090ED3D0A9FED271A30EE010AD2
:1009000080ED3D0A9DF8030001EB800090ED390A6F
:10091000B1EE400A80ED390AFFE79DF8030040F28E
:100920008411C2F2000101EB800292ED3D0A00EB5E
:10093000800001EB800090ED031A30EE410A9FED3C
:10094000171AB4EE410AF1EE10FA1BDAFFE79DF830
:10095000030040F28411C2F2000101EB800090ED2F
:100960003D0A9FED0F1A30EE010A80ED3D0A9DF819
:10097000030001EB800090ED390AB1EE400A80EDF2
:10098000390AFFE79DF8030001308DF803008AE77C
:1009900001B070470000B442000034C30000B4C28C
:1009A0000000344385B004900391029204980178CA
:1009B000407841EA0020ADF80600BDF9060000EEDF
:1009C000100AB8EEC00A40F21400C2F2000090ED26
:1009D000001A20EE010A039981ED000A04998A7831
:1009E000C97842EA0121ADF80610BDF9061000EE03
:1009F000101AB8EEC00A90ED001A20EE010A039911
:100A000081ED010A04990A79497942EA0121ADF898
:100A10000610BDF9061000EE101AB8EEC00A90EDEF
:100A2000001A20EE010A039880ED020A04988179E9
:100A3000C279007A000440EA0220084400909DED4B
:100A4000000AB8EE400A9FED041A20EE010A02984F
:100A500080ED000A05B0704700401C4284B003904E
:100A60000291019203980178407841EA0020ADF8A4
:100A70000200BDF9020000EE100AB8EEC00A40F212
:100A80001800C2F2000090ED001A20EE010A02994F
:100A900081ED000ABDF9021000EE101AB8EEC00A8E
:100AA0009FED271A80EE010A9FED262A20EE020A0A
:100AB000019981ED000A03998A78C97842EA0121F7
:100AC000ADF80210BDF9021000EE101AB8EEC00A1F
:100AD00090ED003A20EE030A029981ED010ABDF97A
:100AE000021000EE101AB8EEC00A80EE010A20EEE5
:100AF000020A019981ED010A03990A79497942EACA
:100B00000121ADF80210BDF9021000EE101AB8EE86
:100B1000C00A90ED003A20EE030A029880ED020A26
:100B2000BDF9020000EE100AB8EEC00A80EE010A1C
:100B300020EE020A019880ED020A04B0704700BF5F
:100B4000000000470000FA4483B00290019102982F
:100B500001784078C90041EA5010ADF80200BDF9B3
:100B60000200B0F5806F07DBFFE7BDF80200A0F5DB
:100B70000060ADF80200FFE7BDF9020000EE100AC8
:100B8000B8EEC00AB4EE001A20EE010AB3EE071A5E
:100B900030EE010A019880ED000A03B070470000B2
:100BA000FFE7FEE780B540F6E020C2F2000003F068
:100BB00073FE80BD80B540F60830C2F2000003F03D
:100BC0006BFE80BD80B586B00A460346ADF81600C0
:100BD0008DF8151040F6F010C2F200004FF40471C9
:100BE000016000218160C160032101619DF817103F
:100BF00040F6BC1CC2F2000C8CF800109DF81610D8
:100C00008CF801109DF815108CF8021040F6E021C8
:100C1000C2F200010DF1100E0390084603990292F2
:100C200062460193734603F09FFB06B080BD00004F
:100C300080B582B040F28410C2F2000090F81C012E
:100C4000002811D0FFE740F26C10C2F20000B0F9AA
:100C50000400B0F5966F07DDFFE740F26C10C2F2BA
:100C600000000121017206E040F26C10C2F20000A7
:100C700000210172FFE740F26C10C2F20000407ADE
:100C8000012814D1FFE740F23800C2F2000090EDD5
:100C9000000A9FED341A20EE010ABDEEC00A10EEE4
:100CA000100A40F26C11C2F20001C88024E040F248
:100CB0006C10C2F20000407A00281CD1FFE740F21D
:100CC0003800C2F2000090ED000A40F28410C2F237
:100CD000000090ED451A30EE410A9FED221A20EEF9
:100CE000010ABDEEC00A10EE100A40F26C11C2F209
:100CF0000001C880FFE7FFE740F26C10C2F200007D
:100D0000B0F90400B0F5966F10DBFFE740F26C100D
:100D1000C2F200000078002808D0FFE740F6082063
:100D2000C2F200000088C92807DBFFE740F26C1020
:100D3000C2F2000000210172FFE740F60820C2F273
:100D4000000001880131018040F26C10C2F2000005
:100D5000C188007A019008460199FFF733FF02B07D
:100D600080BD00BF0000C84270B586B0059001F09C
:100D700095FDFFE740F2E330C2F2000003F0A6F970
:100D800001F002FF01F0E4FC40F2B040C2F20000CA
:100D900009F052F940F23830C2F2000003F07AFA5A
:100DA00000F0F2FA09F08EF8FFF742FF40F28410EB
:100DB000C2F2000090ED310A90ED321A90ED332A24
:100DC00090ED343ABDEEC00A10EE101ABDEEC10A25
:100DD00010EE102ABDEEC20A10EE103ABDEEC30AA4
:100DE00010EE10CA90ED350ABDEEC00A10EE10EA02
:100DF00090ED360ABDEEC00A10EE104A90ED370AAB
:100E0000BDEEC00A10EE105A90ED380ABDEEC00AD1
:100E100010EE100A6E46F060B5607460C6F800E02F
:100E2000084611461A46634601F012FF012011F0F0
:100E3000B7FC04909EE7000080B584B00390FFE704
:100E400040F2DF40C2F2000000F2112140F2A42281
:100E5000C2F2000208F09EFF012816D1FFE740F21F
:100E6000A420C2F200000188090409BA0191817826
:100E70008DF80B1001999DF80B20C31C40F6E02063
:100E8000C2F2000000F006F8FFE7012011F088FC34
:100E9000D6E7000080B586B09446059004918DF8A1
:100EA0000F200293049840F6C011C2F200010860BE
:100EB00000208860C8609DF80F0008610598029ABC
:100EC00001ABCDF800C003F04FFA06B080BD0000C2
:100ED0002DE9F04186B0DDF848C0DDF844E0109C13
:100EE0000F9D0E9E0D9FDDF83080059004910392BA
:100EF000029300200190FFE7019800210228009151
:100F000008DCFFE704980199405C002818BF012025
:100F10000090FFE70098C00700280BD0FFE7049877
:100F20000199405C059A511A8870FFE701980130D9
:100F30000190E1E70598D0F80310D0F80720D0F829
:100F40000B3041F03801C0F80720C0F80310C0F89A
:100F50000B3003980599D1F80320D1F80730D1F868
:100F60000BC060F30202C1F80730C1F80320C1F8DA
:100F70000BC002980599D1F80320D1F80730D1F8B9
:100F80000BC000F00F0022F4707242EA8010C1F82A
:100F90000730C1F80300C1F80BC00C980599D1F8CF
:100FA0000320D1F80730D1F80BC000F00F0022F475
:100FB000705242EA8020C1F80730C1F80300C1F83E
:100FC0000BC00F980599D1F80320D1F80730D1F85C
:100FD0000BC060F30903C1F80320C1F80730C1F862
:100FE0000BC010980599D1F80320D1F80730D1F83B
:100FF0000BC06FF3DF206FF3942343EA8020C1F826
:101000000320C1F80700C1F80BC011980599D1F869
:101010000320D1F80730D1F80BC06FF35F5343EAD8
:101020004050C1F80320C1F80700C1F80BC00D986B
:101030000599D1F80320D1F80730D1F80BC06FF330
:101040005F206FF3963242EA8030C1F80730C1F872
:101050000300C1F80BC00E980599D1F80320D1F810
:101060000730D1F80BC06FF3DF5242EAC050C1F82D
:101070000730C1F80300C1F80BC000200190FFE762
:1010800001980E9988420ED2FFE7129800780599D0
:10109000019A1144C873129801301290FFE7019829
:1010A00001300190ECE706B0BDE8F0812DE9F04F8A
:1010B000B7B0DDF81CC1DDF818E1459C449D439EA6
:1010C000429FDDF80481DDF800919A4693460B912A
:1010D0000A90CDF8A8C0CDF8A4E0289427952696CC
:1010E0002597CDF89080CDF88C90229321920B9A81
:1010F00020920A9B1F930DF1AC0C0DF17C0E2D2458
:1011000009906046089171462246CDF81CA0CDF8A2
:1011100018B0CDF814C00494FFF783F84FF6FF71B0
:10112000ADF8421012A9039008460599049AFFF7FA
:1011300078F80EA91191A5218DF838103321ADF85A
:10114000391040F60411C2F2000109788DF83B1005
:1011500011990422FF230290084611461A4603F013
:1011600075F88DF83C0040F20130ADF83D004FF4C9
:101170008870ADF8300041F68830C2F20000007887
:10118000012808D1FFE70120ADF8320040F201103C
:10119000ADF8340076E041F68830C2F20000007805
:1011A000652808D1FFE76520ADF8320040F26510F0
:1011B000ADF8340065E041F68830C2F200000078F6
:1011C000032808D1FFE70320ADF8320040F20310F6
:1011D000ADF8340054E041F68830C2F200000078E7
:1011E000672808D1FFE76720ADF8320040F26710AA
:1011F000ADF8340043E041F68830C2F200000078D8
:10120000042808D1FFE70420ADF832004FF48270C3
:10121000ADF8340032E041F68830C2F200000078C8
:10122000682808D1FFE76820ADF832004FF4B470A9
:10123000ADF8340021E041F68830C2F200000078B9
:10124000052808D1FFE70520ADF8320040F205106F
:10125000ADF8340010E041F68830C2F200000078AA
:10126000692808D1FFE76920ADF8320040F2691023
:10127000ADF83400FFE7FFE7FFE7FFE7FFE7FFE731
:10128000FFE7FFE70EA811901199BDF84220072350
:1012900001900846194602F0A3FFADF842000CA8E1
:1012A00011901198BDF84220062102F099FFADF887
:1012B000420012A811901198BDF842202D2102F091
:1012C0008FFFADF842000198119000211E91FFE7B9
:1012D0001E9806280CD8FFE71198007810F0E6FB5E
:1012E000119801301190FFE71E9801301E90EFE732
:1012F0000CA8119000201E90FFE71E9805280CD81E
:10130000FFE71198007810F0D1FB1198013011908F
:10131000FFE71E9801301E90EFE712A81190002001
:101320001E90FFE71E982C280CD8FFE71198007834
:1013300010F0BCFB119801301190FFE71E980130AE
:101340001E90EFE70DF14200119000201E90FFE784
:101350001E9801280CD8FFE71198007810F0A6FB22
:10136000119801301190FFE71E9801301E90EFE7B1
:1013700040F60410C2F20000017801310170002033
:1013800037B0BDE8F08F000080B5ADF5147D40F2B8
:101390008410C2F2000090F8B400002808D0FFE7E3
:1013A00040F2E330C2F20000007A012817D1FFE7D3
:1013B00040F28410C2F200000021C0F8C410C0F84E
:1013C000C810C0F8CC10C0F8D010C0F8D410C0F8C5
:1013D000D810C0F8DC10C0F8E01001F031B940F2CC
:1013E0008410C2F2000090F8B400022813D0FFE786
:1013F00040F28410C2F2000090F8B40003280AD032
:10140000FFE740F28410C2F2000090F8B400012817
:1014100040F0B584FFE740F60C10C2F2000090EDFA
:10142000030A9FEDD21A70EE410A30EE011A9FEDC9
:10143000D00A11F0C1F840F69420C2F2000080ED0D
:10144000000A40F28410C2F2000090F8B4000228B2
:1014500040F08281FFE740F60C10C2F2000090EDF0
:10146000030A9FEDC31A31EE400A40F65C11C2F246
:10147000000181ED000A40F21942C2F20002B2F905
:10148000013000EE103AB8EEC00A9FEDBA1A80EEB5
:10149000010A10EE103A92901846919190928DEDBB
:1014A0008F1AFFF7B1F841EC100B919800688DEDA1
:1014B0008C0BFFF7A9F841EC100B51EC100B9FEDD2
:1014C000AE0B53EC102B8B928A93FEF7E7FF41ECA7
:1014D000100B51EC100B9FEDAA0B53EC102B8992C3
:1014E0008893FEF769FF41EC100B13F07DFD9DED35
:1014F0008C1B51EC110B53EC102BFEF75DFF41ECF4
:10150000100B9098B0F90310494201EE101AB8EE92
:10151000C11A9DED8F2A81EE021A11EE100A8DED8F
:10152000860BFFF771F841EC100B919800688DED78
:10153000840BFFF769F841EC100B51EC100B8B9A00
:101540008A9BFEF7ABFF41EC100B51EC100B899A14
:10155000889BFEF731FF41EC100B13F0A9FD9DEDC8
:10156000841B51EC110B53EC102BFEF725FF41ECC3
:10157000100B9DED861B51EC110B53EC102BFEF75D
:1015800015FF41EC100B40F28410C2F2000090ED08
:10159000461A40F23801C2F2000191ED002A81EEB4
:1015A000021AB7EE002A31EE021A11EE102A8390C9
:1015B00010468DED800B7F918DED7E2AFFF724F88C
:1015C00041EC100B9DED801B51EC110B53EC102BDB
:1015D000FEF7F2FE41EC100B51EC100BFFF727F871
:1015E0008399C1F8B8009098B0F9012000EE102A54
:1015F000B8EEC00A9DED8F1A80EE010A10EE100AB7
:10160000FFF702F841EC100B919800688DED7C0B10
:10161000FEF7FAFF41EC100B51EC100B8B9A8A9BF2
:10162000FEF73CFF41EC100B51EC100B899A889BA4
:10163000FEF7C2FE41EC100B13F03AFD9DED7C1B52
:1016400051EC110B53EC102BFEF7B6FE41EC100BD6
:101650009098B0F90310494201EE101AB8EEC11A81
:101660009DED8F2A81EE021A11EE100A8DED7A0B94
:10167000FEF7CAFF41EC100B919800688DED780BD6
:10168000FEF7C2FF41EC100B51EC100B8B9A8A9BBA
:10169000FEF704FF41EC100B51EC100B899A889B6C
:1016A000FEF78AFE41EC100B13F09EFC9DED781BBB
:1016B00051EC110B53EC102BFEF77EFE41EC100B9E
:1016C0009DED7A1B51EC110B53EC102BFEF7CDFD69
:1016D00041EC100B839890ED461A7F9991ED002A0A
:1016E00081EE021A9DED7E2A31EE021A11EE100AE9
:1016F0008DED760BFEF788FF41EC100B9DED761B10
:1017000051EC110B53EC102BFEF756FE41EC100B75
:1017100051EC100BFEF78BFF8399C1F8BC00929837
:1017200090ED030A40F69422C2F20002D2ED000AC4
:1017300040F64C20C2F2000008F0A4F9B1EE400AD5
:10174000839880ED300A90ED300A45F6D440C2F21D
:10175000000010F08BFC11E340F28410C2F2000094
:1017600090F8B400032840F0968111E00000344363
:101770009C44E84200FEFF460000000000806640F6
:1017800000000060FB210940CDCCCCCCCCCCECBF20
:1017900040F60C10C2F2000090ED030A1FED0C1A87
:1017A00031EE400A10EE101A75900846FEF72CFF35
:1017B00041EC100B7598B0F902008DED720BFEF73D
:1017C00012FF41EC100B1FED101B53EC112B51ECD1
:1017D000100BFEF7F1FD41EC100B9DED721B53EC6D
:1017E000112B51EC100BFEF740FD41EC100B51ECAE
:1017F000100BFEF71CFF40F65C11C2F200010860FE
:1018000040F28410C2F2000090ED460A40F2380225
:10181000C2F2000292ED001A80EE010AB7EE001A41
:1018200030EE010A80ED300A40F21942C2F20002A5
:10183000B2F9013000EE103AB8EEC00A1FED331ACB
:1018400080EE010A10EE103A7190184670916F9276
:101850008DED6E1AFEF7D8FE41EC100B7098006803
:101860008DED6C0BFEF7D0FE41EC100B51EC100B24
:101870001FED3F0B53EC102B6B926A93FEF70EFE9D
:1018800041EC100B51EC100B1FED430B53EC102BE4
:1018900069926893FEF790FD41EC100B13F0A4FBE6
:1018A0009DED6C1B51EC110B53EC102BFEF784FDDE
:1018B00041EC100B6F98B0F90310494201EE101A79
:1018C000B8EEC11A9DED6E2A81EE021A11EE100AD1
:1018D0008DED660BFEF798FE41EC100B70980068DA
:1018E0008DED640BFEF790FE41EC100B51EC100BEC
:1018F0006B9A6A9BFEF7D2FD41EC100B51EC100B7A
:10190000699A689BFEF758FD41EC100B13F0D0FB71
:101910009DED641B51EC110B53EC102BFEF74CFDAD
:1019200041EC100B9DED661B51EC110B53EC102B91
:10193000FEF73CFD41EC100B41F6A830C2F200006E
:101940000168639008468DED600BFEF75DFE41EC8B
:10195000100B9DED601B51EC110B53EC102BFEF79F
:101960009DFD41EC100B51EC100BFEF760FE7199E0
:10197000C1F8B8006F98B0F9012000EE102AB8EE57
:10198000C00A9DED6E1A80EE010A10EE100AFEF7F5
:101990003BFE41EC100B709800688DED5E0BFEF77E
:1019A00033FE41EC100B51EC100B6B9A6A9BFEF767
:1019B00075FD41EC100B51EC100B699A689BFEF71A
:1019C000FBFC41EC100B13F073FB9DED5E1B51EC27
:1019D000110B53EC102BFEF7EFFC41EC100B6F9842
:1019E000B0F90310494201EE101AB8EEC11A9DED8C
:1019F0006E2A81EE021A11EE100A8DED5C0BFEF7D5
:101A000003FE41EC100B709800688DED5A0BFEF749
:101A1000FBFD41EC100B51EC100B6B9A6A9BFEF72F
:101A20003DFD41EC100B51EC100B699A689BFEF7E1
:101A3000C3FC41EC100B13F0D7FA9DED5A1B51EC8F
:101A4000110B53EC102BFEF7B7FC41EC100B9DED86
:101A50005C1B51EC110B53EC102BFEF706FC41EC18
:101A6000100B639800688DED580BFEF7CDFD41EC2F
:101A7000100B9DED581B51EC110B53EC102BFEF786
:101A80000DFD41EC100B51EC100BFEF7D0FD7199E0
:101A9000C1F8BC0071E140F28410C2F2000090F87D
:101AA000B400012840F06881FFE740F60C10C2F254
:101AB000000090ED030A1FEDD21A31EE400A40F605
:101AC0005C10C2F2000080ED000A40F21941C2F23F
:101AD0000001B1F9012000EE102AB8EEC00A1FED96
:101AE000DB1A80EE010A10EE102A5790104656912C
:101AF0008DED551AFEF788FD41EC100B57980068E4
:101B00008DED520BFEF780FD41EC100B51EC100BEC
:101B10001FEDE70B53EC102B51925093FEF7BEFCD8
:101B200041EC100B51EC100B1FEDEB0B53EC102B99
:101B30004F924E93FEF740FC41EC100B13F054FA19
:101B40009DED521B51EC110B53EC102BFEF734FCA6
:101B500041EC100B5698B0F90310494201EE101AEF
:101B6000B8EEC11A9DED552A81EE021A11EE100A47
:101B70008DED4C0BFEF748FD41EC100B57980068BB
:101B80008DED4A0BFEF740FD41EC100B51EC100BB4
:101B9000519A509BFEF782FC41EC100B51EC100B5C
:101BA0004F9A4E9BFEF708FC41EC100B13F080FAA5
:101BB0009DED4A1B51EC110B53EC102BFEF7FCFB77
:101BC00041EC100B9DED4C1B51EC110B53EC102B09
:101BD000FEF7ECFB41EC100B40F28410C2F2000067
:101BE00090ED461A40F23801C2F2000191ED002A50
:101BF00081EE021AB7EE002A31EE021A11EE102A17
:101C0000499010468DED460B45918DED442AFEF727
:101C1000FBFC41EC100B9DED461B51EC110B53EC02
:101C2000102BFEF7C9FB41EC100B51EC100BFEF72B
:101C3000FEFC4999C1F8B8005698B0F9012000EEB1
:101C4000102AB8EEC00A9DED551A80EE010A10EE7A
:101C5000100AFEF7D9FC41EC100B579800688DED87
:101C6000420BFEF7D1FC41EC100B51EC100B519ADA
:101C7000509BFEF713FC41EC100B51EC100B4F9AEC
:101C80004E9BFEF799FB41EC100B13F011FA9DED02
:101C9000421B51EC110B53EC102BFEF78DFB41EC6A
:101CA000100B5698B0F90310494201EE101AB8EE25
:101CB000C11A9DED552A81EE021A11EE100A8DED22
:101CC000400BFEF7A1FC41EC100B579800688DED1E
:101CD0003E0BFEF799FC41EC100B51EC100B519AA6
:101CE000509BFEF7DBFB41EC100B51EC100B4F9AB5
:101CF0004E9BFEF761FB41EC100B13F075F99DED67
:101D00003E1B51EC110B53EC102BFEF755FB41EC35
:101D1000100B9DED401B51EC110B53EC102BFEF7FB
:101D2000A4FA41EC100B499890ED461A459991EDB3
:101D3000002A81EE021A9DED442A31EE021A11EEBC
:101D4000100A8DED3C0BFEF75FFC41EC100B9DED96
:101D50003C1B51EC110B53EC102BFEF72DFB41EC0F
:101D6000100B51EC100BFEF762FC4999C1F8BC0056
:101D70000020C1F8C000FFE7FFE7FFE7FFE740F200
:101D80001940C2F20000B0F90100FEF72CFC41EC52
:101D9000100B9FEDEF1B53EC112B51EC100BFEF7CA
:101DA0007DFB41EC100B51EC100BFEF740FC00EEFC
:101DB000100A02F0FBF910EE100AFEF725FC41ECC8
:101DC000100B51EC100B9FEDE40B53EC102BFEF7B6
:101DD000EFFB00282ED1FFE740F21940C2F20000CD
:101DE000B0F90300FEF7FFFB41EC100B9FEDD81B91
:101DF00053EC112B51EC100BFEF750FB41EC100B88
:101E000051EC100BFEF713FC00EE100A02F0CEF9B5
:101E100010EE100AFEF7F8FB41EC100B51EC100B22
:101E20009FEDCD0B53EC102BFEF7A7FB002840F0E5
:101E30008181FFE700208DF84F02FFE79DF84F02F8
:101E4000032800F37681FFE740F28410C2F200001D
:101E500090F8B400022840F0B480FFE740F284100C
:101E6000C2F20000D0F8B810D0F8BC203B90104669
:101E70003A91FEF7C9FB41EC100B45F6D440C2F293
:101E8000000040688DED380BFEF7BEFB41EC100BF7
:101E90009FEDB31B53EC112B51EC100BFEF78CFA9A
:101EA00041EC100B51EC100B9FEDAF0B53EC102BD2
:101EB000FEF7F4FA41EC100B9DF84F0240F22001BE
:101EC000C2F2000101EB800251F820008DED360BCB
:101ED0003592FEF799FB41EC100B53EC102B9DED66
:101EE000360B51EC100B34903391FEF765FA41EC50
:101EF000100B53EC102B9DED380B51EC100BFEF733
:101F0000B4F941EC100B3A988DED300BFEF77CFBE9
:101F100041EC100B359840688DED2E0BFEF774FBED
:101F200041EC100B53EC102B34983399FEF744FA24
:101F300041EC100B53EC102B9DED2E0B51EC100BC4
:101F4000FEF793F941EC110B9DED300B12F04CFFB5
:101F500051EC100B9FED860B53EC102BFEF79EFA05
:101F600041EC100B51EC100B9FED830B53EC102B3D
:101F7000FEF722FA41EC100B9DF84F0240F20401EB
:101F8000C2F2000151F820102D9008468DED2A0B69
:101F9000FEF73AFB41EC100B9DED2A1B51EC110BA7
:101FA00053EC102BFEF761F941EC100B51EC100BC8
:101FB000FEF73DFB3B992D9A01EB8203C3F8F40039
:101FC000B1E040F28410C2F20000D0F8B810D0F8AE
:101FD000BC20D0F8C0302990104628912793FEF7F6
:101FE00013FB41EC100B27988DED240BFEF70CFB37
:101FF00041EC100B9FED5A1B53EC112B51EC100BC5
:10200000FEF7DAF941EC100B51EC100B9FED560B7B
:1020100053EC102BFEF742FA41EC100B9DF84F02E7
:1020200040F22001C2F2000101EB800251F82000D1
:102030008DED220B2192FEF7E7FA41EC100B53ECE9
:10204000102B9DED220B51EC100B20901F91FEF7F1
:10205000B3F941EC100B53EC102B9DED240B51EC1C
:10206000100BFEF702F941EC100B28988DED1C0BBC
:10207000FEF7CAFA41EC100B219840688DED1A0B5F
:10208000FEF7C2FA41EC100B53EC102B20981F996D
:10209000FEF792F941EC100B53EC102B9DED1A0B4F
:1020A00051EC100BFEF7E1F841EC110B9DED1C0B10
:1020B00012F09AFE51EC100B9FED2D0B53EC102BF0
:1020C000FEF7ECF941EC100B51EC100B9FED2A0BD5
:1020D00053EC102BFEF770F941EC100B9DF84F02FA
:1020E00040F20401C2F2000151F820101990084694
:1020F0008DED160BFEF788FA41EC100B9DED161BCB
:1021000051EC110B53EC102BFEF7AFF841EC100B18
:1021100051EC100BFEF78BFA2999199A01EB820307
:10212000C3F8F400FFE79DF84F0201308DF84F022D
:1021300084E6ABE040F28410C2F2000090ED300A79
:10214000B5EE400AF1EE10FA44DD1FE000BF00BF1B
:1021500000000000C0FFDF409A9999999999A93F22
:10216000213A7F669EA0F63F00000000000000407C
:1021700097D17E5AFB210940000000000080664094
:10218000000007C3000034420000344340F2040062
:10219000C2F2000090ED000A1FED071A30EE010AAE
:1021A00040F28411C2F2000181ED3D0A4268C1F89B
:1021B000F82090ED020A1FED0D1A30EE010A81EDB4
:1021C0003F0A90ED030A1FED101A30EE010A81ED6F
:1021D000400A5AE040F28410C2F2000090ED300A4A
:1021E000B5EE400AF1EE10FA24DAFFE740F20400FF
:1021F000C2F2000090ED000A1FED1E1A30EE010A37
:1022000040F28411C2F2000181ED3D0A90ED010A15
:102210001FED231A30EE010A81ED3E0A90ED020A0D
:102220001FED291A30EE010A81ED3F0AC068C1F89E
:10223000000129E040F28410C2F2000090ED300A63
:10224000B5EE400AF1EE10FA1DD1FFE740F20400AE
:10225000C2F2000090ED000A1FED361A30EE010ABE
:1022600040F28411C2F2000181ED3D0A4268C1F8DA
:10227000F82090ED020A30EE010A81ED3F0AC068B5
:10228000C1F80001FFE7FFE7FFE7FFE740F2841036
:10229000C2F2000090ED3D0A40F29031C2F200011E
:1022A00091ED031A9FEDEC2A71EE420A31EE021A0B
:1022B00015908DED142A10F07FF9159880ED3D0AE8
:1022C00090ED3E0A40F29C41C2F2000191ED031AEA
:1022D0009DED142A71EE420A31EE021A10F06CF9EB
:1022E000159880ED3E0A90ED3F0A40F27441C2F22B
:1022F000000191ED031A9DED142A71EE420A31EEB0
:10230000021A10F059F9159880ED3F0A90ED400A35
:1023100040F26831C2F2000191ED031A9DED142ADA
:1023200071EE420A31EE021A10F046F9159880ED6E
:10233000400A40F26C11C2F200014978012951D1E2
:10234000FFE740F26C10C2F20000007A012849D188
:10235000FFE740F28410C2F2000090ED2E0A90EDEB
:10236000461AB0EE082A20EE020A40F23801C2F204
:10237000000191ED003A81EE031AB7EE003A31EE1A
:10238000031A80EE010A80ED2E0A90ED2F0A90EDDF
:10239000461A20EE020A91ED004A81EE041A31EE4F
:1023A000031A80EE010A80ED2F0A90ED300A90EDBD
:1023B000461A20EE020A91ED002A81EE021A31EE51
:1023C000031A80EE010A80ED300A40F26C10C2F26E
:1023D00000000121417241F20040C2F200000021E0
:1023E000016206E040F26C10C2F20000002141726E
:1023F000FFE700208DF84E02FFE79DF84E0203280C
:1024000000F3AB80FFE740F28410C2F20000D0F886
:10241000B810D0F8BC20D0F8C0001390104612912C
:10242000FEF7F2F841EC100B13988DED100BFEF750
:10243000EBF841EC100B9FED841B53EC112B51EC8E
:10244000100BFDF7B9FF41EC100B51EC100B9FED99
:10245000800B53EC102BFEF721F841EC100B9DF88C
:102460004E0240F22001C2F2000101EB800251F85D
:1024700020008DED0E0B0D92FEF7C6F841EC100B0F
:1024800053EC102B9DED0E0B51EC100B0C900B919F
:10249000FDF792FF41EC100B53EC102B9DED100B50
:1024A00051EC100BFDF7E1FE41EC100B51EC100B61
:1024B0000A9009910A9A099BFDF77EFF41EC100BE7
:1024C00012988DED060BFEF79FF841EC100B0D985E
:1024D00040688DED040BFEF797F841EC100B53ECC0
:1024E000102B0C980B99FDF767FF41EC100B53EC88
:1024F000102B9DED040B51EC100BFDF7B6FE41ECDB
:10250000100B51EC100B03900291039A029BFDF704
:1025100053FF41EC100B9DED061B51EC110B53ECDE
:10252000102BFDF7A2FE41EC100B51EC100BFEF747
:102530007EF800EE100A12F01FFE9DF84E0241F6E2
:102540005841C2F2000101EB800080ED000A9DF8C5
:102550004E0201308DF84E024FE741F65840C2F26C
:10256000000090ED000AB1EE400A40F28411C2F280
:10257000000181ED390A4268C1F8E8208268C1F89B
:10258000EC2090ED030AB1EE400A81ED3C0A019186
:10259000FEF784F940F29030C2F2000090ED030A99
:1025A0000198D0ED3D0A41F2BC20C2F2000007F0D4
:1025B00069FA019880ED410A40F29C41C2F20001A3
:1025C00091ED030AD0ED3E0A41F6F020C2F2000080
:1025D00007F058FA019880ED420A40F27441C2F2C5
:1025E000000191ED030AD0ED3F0A41F61820C2F236
:1025F000000007F047FA019880ED430A40F2683185
:10260000C2F2000191ED030AD0ED400A41F2E4105C
:10261000C2F2000007F036FA019880ED440A00F09B
:102620001DF840F2D230C2F20000017840F2D132FF
:10263000C2F200021170019991F8B4200270FFE714
:102640000DF5147D80BD00BF213A7F669EA0F63F48
:1026500000000000000000400000344380B584B05A
:1026600040F28410C2F200000021C0F8C41040F211
:102670009C42C2F20002B2F9022000EE102AB8EE2B
:10268000C00AD0ED420A41F63832C2F2000203908D
:102690001046029107F0F6F9039880ED320A02998C
:1026A000C0F8CC1040F26832C2F20002B2F9022047
:1026B00000EE102AB8EEC00AD0ED440A41F22C20F8
:1026C000C2F2000007F0DEF9039880ED340A0299A7
:1026D000C0F8D41040F28842C2F20002B2F90220DF
:1026E00000EE102AB8EEC00A40F23402C2F2000234
:1026F00092ED001A80EE010AD0ED3A0A41F6A820C8
:10270000C2F20000019207F0BDF9039880ED360A8D
:102710000299C0F8DC1040F25432C2F20002B2F961
:10272000022000EE102AB8EEC00A019A92ED001ABB
:1027300080EE010AD0ED3C0A41F29C10C2F200008A
:1027400007F0A0F9039880ED380A04B080BD0000BE
:1027500080B540F27C30C2F20000016842688368B4
:10276000D0F80CC0006940F2841EC2F2000ECEF810
:102770006000CEF85CC0CEF85830CEF85420CEF8C9
:10278000501040F28840C2F200000168426883683D
:10279000D0F80CC00069CEF87400CEF870C0CEF846
:1027A0006C30CEF86820CEF8641040F26040C2F27F
:1027B0000000016842688368D0F80CC00069CEF858
:1027C0008800CEF884C0CEF88030CEF87C20CEF8D9
:1027D000781040F25430C2F2000001684268836809
:1027E000D0F80CC00069CEF89C00CEF898C0CEF8A6
:1027F0009430CEF89020CEF88C1040F29030C2F297
:102800000000016842688368D0F80CC00069CEF807
:102810001000CEF80CC0CEF80830CEF80420CEF868
:10282000001040F29C40C2F20000016842688368D8
:10283000D0F80CC00069CEF82400CEF820C0CEF845
:102840001C30CEF81820CEF8141040F27440C2F2BA
:102850000000016842688368D0F80CC00069CEF8B7
:102860003800CEF834C0CEF83030CEF82C20CEF878
:10287000281040F26830C2F20000016842688368A4
:10288000D0F80CC00069CEF84C00CEF848C0CEF8A5
:102890004430CEF84020CEF83C1080BD80B58EB0DC
:1028A00041F20430C2F2000040F2A002C2F2000283
:1028B00000219FEDA70A9FEDA71A0D918DED0C0A3F
:1028C000F0EE410A8DED0B1A07F004FA41F63830AC
:1028D000C2F2000040F2F402C2F200020D999DED36
:1028E0000C0ADDED0B0A07F0F5F941F66020C2F2A3
:1028F000000040F2D002C2F200020D999DED0C0AD8
:10290000DDED0B0A07F0E6F941F22C20C2F20000DF
:1029100040F27C02C2F200020D999DED0C0ADDED41
:102920000B0A07F0D7F941F2BC20C2F2000040F2D6
:102930009402C2F200029FED880A9FED881A0D9959
:102940008DED0A0AF0EE410A8DED091A07F0C2F981
:1029500041F6F020C2F2000040F2E802C2F20002AA
:102960000D999DED0A0ADDED090A07F0B3F941F66C
:102970001820C2F2000040F2C402C2F200020D9917
:102980009DED0A0ADDED090A07F0A4F941F2E41011
:10299000C2F2000040F27002C2F200020D999DEDF9
:1029A0000A0ADDED090A07F095F941F27420C2F236
:1029B000000040F28802C2F200029FED690A9FED1A
:1029C000691A0D998DED080AF0EE410A8DED071A8E
:1029D00007F080F941F6A820C2F2000040F2DC02C4
:1029E000C2F200020D999DED080ADDED070A07F01D
:1029F00071F941F6D010C2F2000040F2B802C2F202
:102A000000020D999DED080ADDED070A07F062F955
:102A100041F29C10C2F2000040F26402C2F20002D5
:102A20000D999DED080ADDED070A07F053F940F610
:102A30004C20C2F2000040F25002C2F20002B7EE97
:102A4000000A0D998DED060ADDED060A07F042F940
:102A500040F23840C2F20000DFED430A9FED431A16
:102A60009FED430A9FED432AF0EE002A8DED050A03
:102A7000DDED051A05F056FF40F61C20C2F20000FD
:102A80009FED3D0A9FED3D1A8DED040AF0EE410ADF
:102A90008DED031A0FF010FB40F60C20C2F200007F
:102AA0009DED040ADDED030A0FF006FB41F2004044
:102AB000C2F2000040F2AC02C2F200029FED300A06
:102AC0000D998DED020ADDED020A07F003F941F6DA
:102AD0002410C2F200009FED2B0A8DED010ADDEDFE
:102AE000030A0FF0E9FA45F69440C2F200009DEDAA
:102AF000010ADDED030A0FF0DFFA45F6A440C2F249
:102B000000009DED010ADDED030A0FF0D5FA45F650
:102B1000B440C2F200009DED010ADDED030A0FF0A2
:102B2000CBFA45F6C440C2F200009DED010ADDED8E
:102B3000030A0FF0C1FA45F6D440C2F200009DED41
:102B4000010ADDED060A0FF0B7FA0EB080BD00BF36
:102B50000060EA4600401C460000964300007042B8
:102B60000000804600007A4417B7D138CA54413C6F
:102B700000000000000048426F12033BCDCCCC3D6A
:102B80000000C8426F12833A81B040F21940C2F28D
:102B900000004079013801463128009100F23C8064
:102BA0000099DFE801F019393939393139393929D2
:102BB000393939393939392139393939393939399D
:102BC000393939393939393939393931393939298D
:102BD000393939393939392140F28410C2F20000CB
:102BE000002180F8B41018E040F28410C2F2000016
:102BF000032180F8B41010E040F28410C2F200000B
:102C0000022180F8B41008E040F28410C2F2000003
:102C1000012180F8B41000E0FFE740F21940C2F251
:102C2000000040798006002808D5FFE740F28410B4
:102C3000C2F20000012180F81C1107E040F284106C
:102C4000C2F20000002180F81C11FFE701B07047BC
:102C50002DE9F0438DB0DDF85CC0DDF858E0159C3F
:102C6000149D1E46174688468146ADF83200ADF8E1
:102C70003010ADF82E20ADF82C30ADF82A50ADF85C
:102C80002840ADF826E0ADF824C040F6D810C2F2D6
:102C9000000000218160C160082101619DF83310AE
:102CA00040F2D332C2F20002134603F8081F9DF827
:102CB000321051729DF8311091729DF83010D1721E
:102CC0009DF82F1011739DF82E1051739DF82D1043
:102CD00091739DF82C10D1739DF82B1011709DF8F5
:102CE0002A1051709DF8291091709DF82810D1700C
:102CF0009DF8271011719DF8261051719DF825102F
:102D000091719DF82410D1714FF40071016040F66B
:102D10000831C2F2000141F6484CC2F2000C0890A2
:102D20000846DDF820E00791714606936346059654
:102D30000497CDF80C80CDF8089001F015FB012127
:102D4000019008460FF02CFD40F2FF11089A116027
:102D500041F64C43C2F20003079900900846114621
:102D6000069A01F001FB0DB0BDE8F08340F2EC30B3
:102D7000C2F2000001680131016041680131416027
:102D8000816801318160C1680131C160016901312F
:102D90000161416901314161816901318161C1692B
:102DA0000131C161016A01310162704781B00020C7
:102DB0008DF80300FFE79DF80300072824DCFFE7F8
:102DC0009DF8030040F2EC31C2F2000151F82000FE
:102DD000332809D3FFE79DF8030040F21041C2F207
:102DE000000101220A5408E09DF8030040F210415E
:102DF000C2F2000100220A54FFE7FFE79DF803003A
:102E000001308DF80300D6E740F2EC30C2F200004A
:102E1000006A332807D3FFE740F21040C2F20000F7
:102E20000121017206E040F21040C2F200000021D0
:102E30000172FFE701B0704780B540F6B040C2F2C2
:102E4000000002F0A3FB80BD80B5E4B040F6D05096
:102E5000C2F20000C06C006846F25941C4F202019F
:102E60008842C0F0F380FFE746F20440C4F202005B
:102E7000006840F6D051C2F20001C96C096846F200
:102E80001002C4F202029142639003D1FFE72020B6
:102E90006290D6E040F6D050C2F20000C06C0068EC
:102EA00046F21041C4F20201884203D1FFE720201C
:102EB0006190C3E040F6D050C2F20000C06C0068E0
:102EC00046F27001C4F20201884203D1FFE72020DC
:102ED0006090B0E040F6D050C2F20000C06C0068D4
:102EE00046F27041C4F20201884203D1FFE720207C
:102EF0005F909DE040F6D050C2F20000C06C0068C8
:102F000046F22801C4F20201884204D1FFE74FF4DF
:102F100000605E9089E040F6D050C2F20000C06CC4
:102F2000006846F22841C4F20201884204D1FFE75A
:102F30004FF400605D9075E040F6D050C2F20000A2
:102F4000C06C006846F28801C4F20201884204D1D4
:102F5000FFE74FF400605C9061E040F6D050C2F2B1
:102F60000000C06C006846F28841C4F20201884249
:102F700004D1FFE74FF400605B904DE040F6D05085
:102F8000C2F20000C06C006846F24001C4F20201C7
:102F9000884204D1FFE74FF400105A9039E040F620
:102FA000D050C2F20000C06C006846F24041C4F24A
:102FB0000201884204D1FFE74FF40010599025E048
:102FC00040F6D050C2F20000C06C006846F2A0018A
:102FD000C4F20201884204D1FFE74FF40010589078
:102FE00011E040F6D050C2F20000C06C006846F21A
:102FF000A041C4F202014FF00062884208BF4FF4C2
:1030000000125892FFE758985990FFE759985A9044
:10301000FFE75A985B90FFE75B985C90FFE75C984E
:103020005D90FFE75D985E90FFE75E985F90FFE739
:103030005F986090FFE760986190FFE76198629009
:10304000FFE76298639908405790F7E240F6D05046
:10305000C2F20000C06C006846F2B901C4F202017D
:103060008842C0F0F380FFE746F20040C4F202005D
:10307000006840F6D051C2F20001C96C096846F2FE
:103080001002C4F202029142569003D1FFE72020C1
:103090005590D6E040F6D050C2F20000C06C0068F7
:1030A00046F21041C4F20201884203D1FFE720201A
:1030B0005490C3E040F6D050C2F20000C06C0068EB
:1030C00046F27001C4F20201884203D1FFE72020DA
:1030D0005390B0E040F6D050C2F20000C06C0068DF
:1030E00046F27041C4F20201884203D1FFE720207A
:1030F00052909DE040F6D050C2F20000C06C0068D3
:1031000046F22801C4F20201884204D1FFE74FF4DD
:103110000060519089E040F6D050C2F20000C06CCF
:10312000006846F22841C4F20201884204D1FFE758
:103130004FF40060509075E040F6D050C2F20000AD
:10314000C06C006846F28801C4F20201884204D1D2
:10315000FFE74FF400604F9061E040F6D050C2F2BC
:103160000000C06C006846F28841C4F20201884247
:1031700004D1FFE74FF400604E904DE040F6D05090
:10318000C2F20000C06C006846F24001C4F20201C5
:10319000884204D1FFE74FF400104D9039E040F62B
:1031A000D050C2F20000C06C006846F24041C4F248
:1031B0000201884204D1FFE74FF400104C9025E053
:1031C00040F6D050C2F20000C06C006846F2A00188
:1031D000C4F20201884204D1FFE74FF400104B9083
:1031E00011E040F6D050C2F20000C06C006846F218
:1031F000A041C4F202014FF00062884208BF4FF4C0
:1032000000124B92FFE74B984C90FFE74C984D9083
:10321000FFE74D984E90FFE74E984F90FFE74F988D
:103220005090FFE750985190FFE751985290FFE778
:1032300052985390FFE753985490FFE75498559055
:10324000FFE75598569908404A90F4E140F6D0506F
:10325000C2F20000C06C006846F25901C4F20201DB
:103260008842C0F0F380FFE746F20400C4F2020097
:10327000006840F6D051C2F20001C96C096846F2FC
:103280001002C4F202029142499003D1FFE72020CC
:103290004890D6E040F6D050C2F20000C06C006802
:1032A00046F21041C4F20201884203D1FFE7202018
:1032B0004790C3E040F6D050C2F20000C06C0068F6
:1032C00046F27001C4F20201884203D1FFE72020D8
:1032D0004690B0E040F6D050C2F20000C06C0068EA
:1032E00046F27041C4F20201884203D1FFE7202078
:1032F00045909DE040F6D050C2F20000C06C0068DE
:1033000046F22801C4F20201884204D1FFE74FF4DB
:103310000060449089E040F6D050C2F20000C06CDA
:10332000006846F22841C4F20201884204D1FFE756
:103330004FF40060439075E040F6D050C2F20000B8
:10334000C06C006846F28801C4F20201884204D1D0
:10335000FFE74FF40060429061E040F6D050C2F2C7
:103360000000C06C006846F28841C4F20201884245
:1033700004D1FFE74FF4006041904DE040F6D0509B
:10338000C2F20000C06C006846F24001C4F20201C3
:10339000884204D1FFE74FF40010409039E040F636
:1033A000D050C2F20000C06C006846F24041C4F246
:1033B0000201884204D1FFE74FF400103F9025E05E
:1033C00040F6D050C2F20000C06C006846F2A00186
:1033D000C4F20201884204D1FFE74FF400103E908E
:1033E00011E040F6D050C2F20000C06C006846F216
:1033F000A041C4F202014FF00062884208BF4FF4BE
:1034000000123E92FFE73E983F90FFE73F984090C2
:10341000FFE740984190FFE741984290FFE74298CC
:103420004390FFE743984490FFE744984590FFE7B7
:1034300045984690FFE746984790FFE747984890A1
:10344000FFE74898499908403D90F1E046F20000B6
:10345000C4F20200006840F6D051C2F20001C96C0B
:10346000096846F21002C4F2020291423C9003D174
:10347000FFE720203B90D6E040F6D050C2F200009B
:10348000C06C006846F21041C4F20201884203D1C8
:10349000FFE720203A90C3E040F6D050C2F200008F
:1034A000C06C006846F27001C4F20201884203D188
:1034B000FFE720203990B0E040F6D050C2F2000083
:1034C000C06C006846F27041C4F20201884203D128
:1034D000FFE7202038909DE040F6D050C2F2000077
:1034E000C06C006846F22801C4F20201884204D18F
:1034F000FFE74FF40060379089E040F6D050C2F209
:103500000000C06C006846F22841C4F20201884203
:1035100004D1FFE74FF40060369075E040F6D050DC
:10352000C2F20000C06C006846F28801C4F20201D9
:10353000884204D1FFE74FF40060359061E040F627
:10354000D050C2F20000C06C006846F28841C4F25C
:103550000201884204D1FFE74FF4006034904DE04F
:1035600040F6D050C2F20000C06C006846F2400144
:10357000C4F20201884204D1FFE74FF400103390F7
:1035800039E040F6D050C2F20000C06C006846F24C
:103590004041C4F20201884204D1FFE74FF4001019
:1035A000329025E040F6D050C2F20000C06C0068B6
:1035B00046F2A001C4F20201884204D1FFE74FF4B1
:1035C0000010319011E040F6D050C2F20000C06C03
:1035D000006846F2A041C4F202014FF00062884246
:1035E00008BF4FF400123192FFE731983290FFE7A5
:1035F00032983390FFE733983490FFE73498359052
:10360000FFE735983690FFE736983790FFE7379811
:103610003890FFE738983990FFE739983A90FFE7FC
:103620003A983B90FFE73B983C9908403D90FFE774
:103630003D984A90FFE74A985790FFE7579800282F
:1036400000F06F84FFE740F6D050C2F20000C06C7B
:10365000006846F25941C4F202018842C0F0EF808E
:10366000FFE740F6D050C2F20000C06C006846F29E
:103670001001C4F20201884203D1FFE720203090FC
:10368000D6E040F6D050C2F20000C06C006846F2AE
:103690001041C4F20201884203D1FFE720202F909D
:1036A000C3E040F6D050C2F20000C06C006846F2A1
:1036B0007001C4F20201884203D1FFE720202E905E
:1036C000B0E040F6D050C2F20000C06C006846F294
:1036D0007041C4F20201884203D1FFE720202D90FF
:1036E0009DE040F6D050C2F20000C06C006846F287
:1036F0002801C4F20201884204D1FFE74FF40060C0
:103700002C9089E040F6D050C2F20000C06C0068F6
:1037100046F22841C4F20201884204D1FFE74FF487
:1037200000602B9075E040F6D050C2F20000C06CF3
:10373000006846F28801C4F20201884204D1FFE722
:103740004FF400602A9061E040F6D050C2F20000D1
:10375000C06C006846F28841C4F20201884204D17C
:10376000FFE74FF4006029904DE040F6D050C2F2E0
:103770000000C06C006846F24001C4F202018842B9
:1037800004D1FFE74FF40010289039E040F6D05004
:10379000C2F20000C06C006846F24041C4F202016F
:1037A000884204D1FFE74FF40010279025E040F64F
:1037B000D050C2F20000C06C006846F2A001C4F212
:1037C0000201884204D1FFE74FF40010269011E077
:1037D00040F6D050C2F20000C06C006846F2A04132
:1037E000C4F202014FF00062884208BF4FF4001299
:1037F0002692FFE726982790FFE727982890FFE773
:1038000028982990FFE729982A90FFE72A982B907B
:10381000FFE72B982C90FFE72C982D90FFE72D9831
:103820002E90FFE72E982F90FFE72F983090FFE71C
:10383000309846F20C41C4F202010860EDE240F615
:10384000D050C2F20000C06C006846F2B901C4F268
:1038500002018842C0F0F080FFE740F6D050C2F28B
:103860000000C06C006846F21001C4F202018842F8
:1038700003D1FFE720202590D6E040F6D050C2F2D9
:103880000000C06C006846F21041C4F20201884298
:1038900003D1FFE720202490C3E040F6D050C2F2CD
:1038A0000000C06C006846F27001C4F20201884258
:1038B00003D1FFE720202390B0E040F6D050C2F2C1
:1038C0000000C06C006846F27041C4F202018842F8
:1038D00003D1FFE7202022909DE040F6D050C2F2B5
:1038E0000000C06C006846F22801C4F20201884260
:1038F00004D1FFE74FF40060219089E040F6D050FA
:10390000C2F20000C06C006846F22841C4F2020115
:10391000884204D1FFE74FF40060209075E040F644
:10392000D050C2F20000C06C006846F28801C4F2B8
:103930000201884204D1FFE74FF400601F9061E06C
:1039400040F6D050C2F20000C06C006846F28841D8
:10395000C4F20201884204D1FFE74FF400601E90D8
:103960004DE040F6D050C2F20000C06C006846F254
:103970004001C4F20201884204D1FFE74FF4001075
:103980001D9039E040F6D050C2F20000C06C0068D3
:1039900046F24041C4F20201884204D1FFE74FF4ED
:1039A00000101C9025E040F6D050C2F20000C06C20
:1039B000006846F2A001C4F20201884204D1FFE788
:1039C0004FF400101B9011E040F6D050C2F20000FE
:1039D000C06C006846F2A041C4F202014FF00062E0
:1039E000884208BF4FF400121B92FFE71B981C90FF
:1039F000FFE71C981D90FFE71D981E90FFE71E989B
:103A00001F90FFE71F982090FFE720982190FFE785
:103A100021982290FFE722982390FFE72398249093
:103A2000FFE724982590FFE7259846F20841C4F265
:103A3000020108601A90EEE140F6D050C2F2000098
:103A4000C06C006846F25901C4F202018842C0F01D
:103A5000F080FFE740F6D050C2F20000C06C006872
:103A600046F21001C4F20201884203D1FFE7202090
:103A70001990D6E040F6D050C2F20000C06C006849
:103A800046F21041C4F20201884203D1FFE7202030
:103A90001890C3E040F6D050C2F20000C06C00683D
:103AA00046F27001C4F20201884203D1FFE72020F0
:103AB0001790B0E040F6D050C2F20000C06C006831
:103AC00046F27041C4F20201884203D1FFE7202090
:103AD00016909DE040F6D050C2F20000C06C006825
:103AE00046F22801C4F20201884204D1FFE74FF4F4
:103AF0000060159089E040F6D050C2F20000C06C22
:103B0000006846F22841C4F20201884204D1FFE76E
:103B10004FF40060149075E040F6D050C2F20000FF
:103B2000C06C006846F28801C4F20201884204D1E8
:103B3000FFE74FF40060139061E040F6D050C2F20E
:103B40000000C06C006846F28841C4F2020188425D
:103B500004D1FFE74FF4006012904DE040F6D050E2
:103B6000C2F20000C06C006846F24001C4F20201DB
:103B7000884204D1FFE74FF40010119039E040F67D
:103B8000D050C2F20000C06C006846F24041C4F25E
:103B90000201884204D1FFE74FF40010109025E0A5
:103BA00040F6D050C2F20000C06C006846F2A0019E
:103BB000C4F20201884204D1FFE74FF400100F90D5
:103BC00011E040F6D050C2F20000C06C006846F22E
:103BD000A041C4F202014FF00062884208BF4FF4D6
:103BE00000120F92FFE70F981090FFE710981190C6
:103BF000FFE711981290FFE712981390FFE71398D0
:103C00001490FFE714981590FFE715981690FFE7BA
:103C100016981790FFE717981890FFE718981990D3
:103C2000FFE7199846F20C01C4F2020108600E90F9
:103C3000EEE040F6D050C2F20000C06C006846F2E0
:103C40001001C4F20201884203D1FFE720200D9049
:103C5000D6E040F6D050C2F20000C06C006846F2D8
:103C60001041C4F20201884203D1FFE720200C90EA
:103C7000C3E040F6D050C2F20000C06C006846F2CB
:103C80007001C4F20201884203D1FFE720200B90AB
:103C9000B0E040F6D050C2F20000C06C006846F2BE
:103CA0007041C4F20201884203D1FFE720200A904C
:103CB0009DE040F6D050C2F20000C06C006846F2B1
:103CC0002801C4F20201884204D1FFE74FF40060EA
:103CD000099089E040F6D050C2F20000C06C006844
:103CE00046F22841C4F20201884204D1FFE74FF4B2
:103CF0000060089075E040F6D050C2F20000C06C41
:103D0000006846F28801C4F20201884204D1FFE74C
:103D10004FF40060079061E040F6D050C2F200001E
:103D2000C06C006846F28841C4F20201884204D1A6
:103D3000FFE74FF4006006904DE040F6D050C2F22D
:103D40000000C06C006846F24001C4F202018842E3
:103D500004D1FFE74FF40010059039E040F6D05051
:103D6000C2F20000C06C006846F24041C4F2020199
:103D7000884204D1FFE74FF40010049025E040F69C
:103D8000D050C2F20000C06C006846F2A001C4F23C
:103D90000201884204D1FFE74FF40010039011E0C4
:103DA00040F6D050C2F20000C06C006846F2A0415C
:103DB000C4F202014FF00062884208BF4FF40012C3
:103DC0000392FFE703980490FFE704980590FFE74C
:103DD00005980690FFE706980790FFE70798089078
:103DE000FFE708980990FFE709980A90FFE70A980B
:103DF0000B90FFE70B980C90FFE70C980D90FFE7F6
:103E00000D9846F20801C4F2020108600E90FFE727
:103E10000E981A90FFE71A98FFE740F6DF20C2F2EB
:103E2000000000788007002822D5FFE740F6DF2059
:103E3000C2F20000017801F0FD01017040F2004083
:103E4000C4F2020001210291029A02F061F840F6E8
:103E5000D720C2F20000013040F69011C2F20001FA
:103E6000143140F22C32C2F20002FCF7F7FDFFE7FA
:103E700040F62E10C2F2000000788007002820D5FE
:103E8000FFE740F62E10C2F20000017801F0FD01BC
:103E900001700020C4F202001021012202F038F863
:103EA00040F62010C2F20000023040F69011C2F23B
:103EB00000010A1D203101911146019AFCF772FDA3
:103EC000FFE740F62D10C2F20000007880070028BE
:103ED00024D5FFE740F62D10C2F20000017801F072
:103EE000FD0101700020C4F202001021012202F045
:103EF0000FF840F62910C2F20000023040F690118F
:103F0000C2F2000101F1100200911146FCF71CFE03
:103F1000009890ED040A0EF063FAFFE70EF03AF90C
:103F2000FFE764B080BD000080B540F61050C2F2DB
:103F3000000001F02BFB80BD80B540F6F030C2F2EE
:103F4000000001F023FB80BD80B540F69030C2F246
:103F5000000001F01BFB80BD80B540F67050C2F23E
:103F6000000001F013FB80BD80B540F65040C2F266
:103F7000000001F00BFB80BD82B001900198007839
:103F800010384AF6AB21CAF6AA21A0FB01010909A3
:103F90000091009945F69862C0F60102515C019AC1
:103FA000D1650099042907D3FFE70198016804222D
:103FB00062F30901816506E00198016840F2FF3271
:103FC00091438165FFE70198806D02B07047000062
:103FD00086B0059000208DF813000598806A039044
:103FE00005988069002823D1FFE7039803280290F1
:103FF0001CD80299DFE801F0020E0219059890F82A
:104000002F00C007002804D0FFE701208DF813001F
:10401000FFE70CE00598C06AB0F1C07F04D1FFE76C
:1040200001208DF81300FFE701E000E0FFE747E023
:1040300005988069B0F5005F26D1FFE70398032853
:1040400001901FD80199DFE801F002060212012059
:104050008DF8130017E0059890F82F00C00700288E
:1040600004D0FFE701208DF81300FFE70BE005986F
:10407000C06AB0F1C07F04D1FFE701208DF81300C2
:10408000FFE700E0FFE71AE003980328009004D35D
:10409000FFE70098032804D00FE001208DF81300FB
:1040A0000CE0059890F82F00C007002804D0FFE727
:1040B00001208DF81300FFE700E0FFE7FFE7FFE7CF
:1040C0009DF8130006B070477047000081B0009063
:1040D000009840F21041C2F200010A7A02720A68A6
:1040E00049684160026001B07047000080B510204F
:1040F00001F00EFD80BD000080B5202001F008FD1C
:1041000080BD000080B584B01346039002918DF805
:10411000072000208DF806000398009304F090FB20
:10412000002801D0FFE737E00398D0F80D02B0F582
:10413000FD7F01D9FFE72FE0FFE79DF806009DF81E
:104140000710884228DAFFE70398D0F809120131F6
:104150004CF21162C1F6B07251FB02F2931103EB03
:10416000D27240F2052302FB1311C0F80912029823
:104170009DF80610405C0399D1F8092288540398F1
:10418000D0F80D120131C0F80D12FFE79DF80600BE
:1041900001308DF80600D0E704B080BD81B0EFF3A8
:1041A000108072B60090FFE7FEE7000082B08DED50
:1041B000000A9DED000AB5EE400AF1EE10FA07DAAA
:1041C000FFE79DED000AB1EE400A8DED010A02E025
:1041D00000980190FFE79DED010A02B070470000D2
:1041E00084B0134602900191ADF802200298002895
:1041F00005D1FFE74FF6FF70ADF80E0022E0FFE7B4
:104200000198411E0191002817D0FFE70298411C38
:10421000029100788DF80100BDF802009DF80110B0
:104220004140C9B245F65E72C0F6010232F8111083
:1042300081EA1020ADF80200E2E7BDF80200ADF817
:104240000E00FFE7BDF80E0004B0704783B01346C0
:10425000029001918DF80320FFE70198411E019122
:10426000002813D0FFE79DF8030002994A1C029230
:10427000097848408DF802009DF8020045F6984103
:10428000C0F60101085C8DF80300E6E79DF8030025
:1042900003B0704781B0009040F22030C2F20000BD
:1042A00090ED020A9FED191A80EE010A9FED182A7F
:1042B00020EE020A009981ED020A90ED010A80EEDB
:1042C000010A20EE020A009981ED010A90ED000A30
:1042D00080EE010A20EE020A009880ED000A40F20A
:1042E0002C30C2F2000090ED020AB1EE400A0099B3
:1042F00081ED050A90ED000AB1EE400A009981EDCA
:10430000040A40680099C86001B07047DB0F49405B
:104310000000344384B002900191029890F820008C
:104320008DF803009DF80300012805D0FFE79DF8F4
:10433000030002280AD1FFE70198029909684A6937
:104340001043486100208DF80F0008E00298416A90
:1043500041F48021416201208DF80F00FFE79DF8B4
:104360000F0004B07047000088B0069005910492D9
:104370000393069890F820008DF8070006980068CF
:104380008068009005988068002801D1FFE700E070
:10439000FFE79DF80700012806D0FFE79DF807001A
:1043A000022840F08F80FFE79DF8030040070028B7
:1043B0000CD4FFE79DF803000007002806D4FFE7B0
:1043C0009DF80300C006002873D5FFE70098C0F3EE
:1043D000016002900298032809D3FFE70698416A1A
:1043E00041F40001416201208DF81F0073E0029842
:1043F000012101FA00F003990860059880680028FF
:104400000DD1FFE705980168C06840EA4150069960
:104410000968029A01EB0211C1F880010EE00598CB
:1044200041688268C06842EAC10108430699096888
:10443000029A01EB0211C1F88001FFE705980069BB
:1044400006990968029A01EB0211C1F884010598E6
:10445000007D01280CD1FFE706980068029900EB67
:104460000110D0F8841141F48071C0F88411FFE785
:104470000498406806990968029A01EB0211C1F894
:104480008C010498006806990968029A01EB0211F0
:10449000C1F8880106980068029900EB0110D0F875
:1044A000801141F00101C0F8801100208DF81F003B
:1044B00011E00698416A41F40011416201208DF833
:1044C0001F0008E00698416A41F480214162012002
:1044D0008DF81F00FFE79DF81F0008B0704700002F
:1044E00086B004900391049800680190049890F8B5
:1044F00020008DF803009DF80300012806D0FFE797
:104500009DF80300022840F0B880FFE746F2004023
:10451000C4F2000001900198D0F8001241F00101AE
:10452000C0F800120198D0F8001221F47C51C0F8B4
:1045300000120398406A0199D1F8002242EA002053
:10454000C1F800020398406900F01F00012101FA40
:1045500000F0029002980199D1F81C2222EA000092
:10456000C1F81C020398C06900281FD1FFE7029818
:104570000199D1F80C2222EA0000C1F80C0203983C
:104580008188C268406941EA0241019A02EBC00099
:10459000C0F84012039801888268406941EA0241EC
:1045A000019A02EBC000C0F84412FFE70398C0690B
:1045B00001281ED1FFE702980199D1F80C2210437F
:1045C000C1F80C02039881880268406941EA0241FF
:1045D000019A02EBC000C0F84012039881898268FA
:1045E000406941EA0241019A02EBC000C0F844125E
:1045F000FFE703988069002809D1FFE70298019935
:10460000D1F8042222EA0000C1F8040207E002986F
:104610000199D1F804221043C1F80402FFE703987E
:104620000069002809D1FFE702980199D1F8142206
:1046300022EA0000C1F8140207E002980199D1F8BB
:1046400014221043C1F81402FFE70398006A0128FE
:1046500008D1FFE702980199D1F81C221043C1F854
:104660001C02FFE70198D0F8001221F00101C0F808
:10467000001200208DF8170008E00498416A41F408
:104680008021416201208DF81700FFE79DF8170097
:1046900006B0704781B0009001B0704786B00490BA
:1046A000039102920193049890F820008DF8030082
:1046B0009DF80300012806D0FFE79DF803000228BB
:1046C00040F0DC80FFE70398002811D1FFE7049851
:1046D0000068C0688007002809D1FFE70498416A94
:1046E00041F40011416201208DF81700CFE010E085
:1046F0000498006800698007002809D1FFE7049842
:10470000416A41F40011416201208DF81700BEE0BA
:10471000FFE704980068039900EB0110D0F8B0019E
:1047200000F00400029988600298806800280BD18C
:10473000FFE704980068039900EB0110D0F8B0017E
:10474000400D029908600AE004980068039900EBA4
:104750000110D0F8B001C00802994860FFE7049842
:104760000068039900EB0110D0F8B00100F00200DE
:104770000299C86004980068039900EB0110D0F812
:10478000B40100F00F0002990861049800680399D1
:1047900000EB0110D0F8B40180B2000A02998861E0
:1047A00004980068039900EB0110D0F8B401000CE4
:1047B0000299486104980068039900EB0110D0F851
:1047C000B8010199087004980068039900EB011082
:1047D000D0F8B801000A019948700498006803995C
:1047E00000EB0110D0F8B801000C01998870049812
:1047F0000068039900EB0110D0F8B801000E019990
:10480000C87004980068039900EB0110D0F8BC014F
:104810000199087104980068039900EB0110D0F821
:10482000BC01000A0199487104980068039900EBE3
:104830000110D0F8BC01000C01998871049800683F
:10484000039900EB0110D0F8BC01000E0199C8716A
:104850000398002807D1FFE704980068C16841F079
:104860002001C16006E004980068016941F0200160
:104870000161FFE700208DF8170008E00498416A05
:1048800041F48021416201208DF81700FFE79DF877
:10489000170006B07047000080B58AB0099000206C
:1048A0000890099800684069079009980068406876
:1048B0000690099800688068059009980068C068AB
:1048C000049009980068006903900998006880695D
:1048D00002909DF81C00C007002800F09780FFE7B9
:1048E0009DF81400C00700282BD0FFE70998006846
:1048F000012181609DF814008007002804D5FFE79E
:10490000099800F08FFD1BE09DF814004007002877
:1049100005D5FFE7089840F4006008900FE09DF887
:1049200014000007002805D5FFE7089840F48050E0
:10493000089003E0099800F071FDFFE7FFE7FFE74B
:10494000FFE79DF81500C00700282CD0FFE7099865
:1049500000684FF4807181609DF815008007002881
:1049600004D5FFE7099800F065FD1BE09DF81500F0
:104970004007002805D5FFE7089840F4005008904C
:104980000FE09DF815000007002805D5FFE70898FF
:1049900040F48040089003E0099800F047FDFFE7ED
:1049A000FFE7FFE7FFE79DF81600C00700282CD0BF
:1049B000FFE7099800684FF4803181609DF8160088
:1049C0008007002804D5FFE7099800F03BFD1BE0B5
:1049D0009DF816004007002805D5FFE7089840F429
:1049E000004008900FE09DF816000007002805D54C
:1049F000FFE7089840F48030089003E0099800F041
:104A00001DFDFFE7FFE7FFE7FFE7FFE79DF81C005D
:104A10000007002810D5FFE79DF81000C006002809
:104A200009D5FFE7089840F40070089009980068DD
:104A30001021C160FFE7FFE79DF81C004007002838
:104A40000FD5FFE79DF810000007002808D5FFE705
:104A5000099800680821C160099800F0D7FAFFE7BB
:104A6000FFE79DF81C00800700280CD5FFE7099898
:104A70000068C0688007002804D0FFE7099800F0AC
:104A8000C9FAFFE7FFE79DF81C004006002810D593
:104A9000FFE79DF80C00C006002809D5FFE708983D
:104AA00040F4806008900998006810210161FFE7D8
:104AB000FFE79DF81C00800600280FD5FFE79DF852
:104AC0000C000007002808D5FFE7099800680821B6
:104AD0000161099800F050FCFFE7FFE79DF81C001A
:104AE000C00600280CD5FFE7099800680069800718
:104AF000002804D0FFE7099800F042FCFFE7FFE739
:104B00009DF81E00800700280FD5FFE79DF81800CC
:104B1000C006002808D5FFE7099800681021416009
:104B2000099800F031FCFFE7FFE79DF81E00C00781
:104B300000280FD0FFE79DF818000007002808D5CF
:104B4000FFE70998006808214160099800F07EFCA1
:104B5000FFE7FFE79DF81D000006002840F18F8069
:104B6000FFE79DF818004007002840F18380FFE729
:104B70009DF81D00C00700280BD0FFE79DF8080036
:104B8000C007002805D0FFE7089840F00100089012
:104B9000FFE79DF81D00800700280BD5FFE79DF873
:104BA00008008007002805D5FFE7089840F00200BC
:104BB0000890FFE79DF81D00400700280BD5FFE790
:104BC0009DF808004007002805D5FFE7089840F049
:104BD00004000890FFE79DF81D000007002848D555
:104BE000FFE79DF8080010F0700F42D0FFE7029831
:104BF00000F0700001461028019114D0FFE70198E1
:104C0000202815D0FFE70198302816D0FFE701983B
:104C1000402817D0FFE70198502818D0FFE70198E7
:104C2000602819D01DE0089840F00800089019E0AD
:104C3000089840F01000089014E0089840F0200018
:104C400008900FE0089840F0400008900AE00898AB
:104C500040F08000089005E0089840F480700890CB
:104C600000E0FFE709980068816921F07001816127
:104C7000FFE7FFE70998006804214160FFE7089813
:104C8000002809D0FFE7089809994A6A104348624A
:104C90000998FFF7FFFCFFE70AB080BD80B584B03C
:104CA00002900298002804D1FFE701208DF80F0040
:104CB000E2E0029890F82000002804D1FFE7029873
:104CC00000F0DEF8FFE702980068016841F001019A
:104CD000016001F037F90190FFE702980068406831
:104CE000C007002815D1FFE701F02CF90199401AFF
:104CF0000B280DD3FFE70298416A41F4003141626D
:104D00000298052180F8201001208DF80F00B3E0F3
:104D1000E3E702980068016821F00201016001F0F8
:104D200011F90190FFE702980068406880070028A9
:104D300015D5FFE701F006F90199401A0B280DD3AC
:104D4000FFE70298416A41F400314162029805216F
:104D500080F8201001208DF80F008DE0E3E7029825
:104D6000007E012807D1FFE702980068016841F042
:104D70008001016006E002980068016821F080016E
:104D80000160FFE70298407E012807D1FFE7029803
:104D90000068016841F04001016006E00298006887
:104DA000016821F040010160FFE70298807E012840
:104DB00007D1FFE702980068016841F02001016017
:104DC00006E002980068016821F020010160FFE719
:104DD0000298C07E012807D1FFE7029800680168A9
:104DE00021F01001016006E002980068016841F0BE
:104DF00010010160FFE70298007F012807D1FFE75B
:104E000002980068016841F00801016006E002981C
:104E10000068016821F008010160FFE70298407F07
:104E2000012807D1FFE702980068016841F00401FA
:104E3000016006E002980068016821F00401016049
:104E4000FFE70298016842688368D0F80CC043EA23
:104E50000C03D0F810C043EA0C0340691843013A30
:104E60001043C8610298002141620298012280F833
:104E700020208DF80F10FFE79DF80F0004B080BDD3
:104E800080B590B00F9000200E900D900C900B907C
:104E90000A900F98006846F20041C4F2000188426F
:104EA0004AD1FFE740F2EC20C2F200000168013174
:104EB00001600068012812D1FFE7FFE70020099098
:104EC00043F64000C4F20200016841F00071016045
:104ED000006800F0007009900998FFE7FFE7FFE71E
:104EE0000020089043F63000C4F20200016841F04F
:104EF00008010160006800F0080008900898FFE7CA
:104F000003200A9002210B9100210C910D900920A1
:104F10000E9040F60040C4F202000AAA0491114625
:104F200000F014FE142005210390049A01F0F2F819
:104F3000039801F0E3F866E00F98006846F6000178
:104F4000C4F2000188425DD1FFE7FFE7002007902F
:104F500043F64000C4F20200016841F08061016044
:104F6000006800F0806007900798FFE740F2EC20AF
:104F7000C2F200000168013101600068012812D10D
:104F8000FFE7FFE70020069043F64000C4F202006E
:104F9000016841F000710160006800F00070069047
:104FA0000698FFE7FFE7FFE70020059043F6300093
:104FB000C4F20200016841F002010160006800F0E3
:104FC000020005900598FFE760200A9002200B90F0
:104FD00000200C9003210D9109210E9140F2004117
:104FE000C4F202010AAA02900846114600F0AEFD82
:104FF000402005210190029A01F08CF8019801F0FF
:105000007DF8FFE7FFE710B080BD000081B00090A1
:1050100001B0704780B584B00390039841F6E43244
:10502000C2F2000241F6D933C2F200030021FFF7B9
:1050300035FB0399096846F60002C4F2000291426A
:1050400040F0E680FFE741F6E430C2F2000000687D
:10505000A0F2012001460728029100F2D7800299B0
:10506000DFE801F06C86A0BA041E385240F2EC3042
:10507000C2F200000021016040F2BC20C2F2000038
:1050800001680131016041F6E430C2F200000068BD
:10509000039941F6D932C2F2000204F0D1FAB6E027
:1050A00040F2EC30C2F200000021416040F2BC202E
:1050B000C2F2000041680131416041F6E430C2F2C1
:1050C00000000068039941F6D932C2F2000204F0F0
:1050D000B7FA9CE040F2EC30C2F20000002181609F
:1050E00040F2BC20C2F2000081680131816041F6CB
:1050F000E430C2F200000068039941F6D932C2F2EE
:10510000000204F09DFA82E040F2EC30C2F20000AE
:105110000021C16040F2BC20C2F20000C168013130
:10512000C16041F6E430C2F200000068039941F624
:10513000D932C2F2000204F083FA68E040F2EC30A7
:10514000C2F200000021016140F2BC20C2F2000066
:1051500001690131016141F6E430C2F200000068EA
:10516000039941F6D932C2F2000204F069FA4EE026
:1051700040F2EC30C2F200000021416140F2BC205C
:10518000C2F2000041690131416141F6E430C2F2EE
:1051900000000068039941F6D932C2F2000204F01F
:1051A0004FFA34E040F2EC30C2F20000002181619D
:1051B00040F2BC20C2F2000081690131816141F6F8
:1051C000E430C2F200000068039941F6D932C2F21D
:1051D000000204F035FA1AE040F2EC30C2F20000AE
:1051E0000021C16140F2BC20C2F20000C16901315E
:1051F000C16141F6E430C2F200000068039941F653
:10520000D932C2F2000204F01BFA00E0FFE7ABE083
:105210000398006846F20041C4F20001884240F061
:10522000A280FFE741F6E430C2F200000068B0F56A
:10523000837F019056D0FFE740F207100199814229
:105240005BD0FFE70198B0F5887F57D0FFE740F2C9
:1052500011100199814266D0FFE740F205200199C3
:10526000814206D0FFE740F21120019981425BD0D4
:1052700077E040F60C10C2F200000188018141F68F
:10528000D931C2F200010A784B7843EA0222028047
:105290008A78CB7843EA022242800A794B7943EA42
:1052A0000222828089798171018800EE101AB8EE9D
:1052B000C00A9FED2E1A80EE010A9FED2D1A20EEF6
:1052C000010A9FED2C2A30EE020A80ED030AB0F9A4
:1052D000021000EE101AB8EEC00A20EE010A80EDAE
:1052E000040A3FE041F6D930C2F20000008840F2E3
:1052F0001011C2F20001088034E033E040F2EC30DB
:10530000C2F200000021016241F6D930C2F2000071
:105310000168D0F8030040F21942C2F20002C2F85C
:10532000030011601EE01DE040F60820C2F20000FC
:105330000021018041F6D930C2F20000017840F22C
:105340006C12C2F200021170417851708178C378FA
:1053500043EA012151800179407940EA012090809F
:1053600000E0FFE7FFE7FFE704B080BD00F8FF457E
:105370000000B443000034C381B0009001B0704716
:1053800081B0009001B0704781B0009001B07047CB
:1053900080B584B00290029890F82000012830D1A6
:1053A000FFE70298022180F8201002980068016847
:1053B00021F00101016000F0C5FD0190FFE70298B6
:1053C00000684068C007002815D0FFE700F0BAFD6C
:1053D0000199401A0B280DD3FFE70298416A41F466
:1053E000003141620298052180F8201001208DF8DB
:1053F0000F000FE0E3E70298002141628DF80F10E3
:1054000008E00298416A41F40021416201208DF8D0
:105410000F00FFE79DF80F0004B080BD81B0009041
:1054200001B0704781B0009001B0704781B000902A
:1054300001B0704781B0009001B0704781B000901A
:1054400001B0704781B0009001B0704781B000900A
:1054500001B0704780B584B002900298806D0190D1
:1054600000F070FD0090029890F8350002280DD0F1
:10547000FFE7029880214165FFE70298002180F84C
:105480003410FFE701208DF80F0059E00298006802
:10549000016821F01601016002980068416921F05D
:1054A000800141610298006C002805D1FFE7029855
:1054B000806C002807D0FFE702980068016821F09F
:1054C00008010160FFE702980068016821F001010E
:1054D0000160FFE7029800680068C007002819D043
:1054E000FFE700F02FFD0099401A062811D3FFE7CF
:1054F0000298202141650298032180F83510FFE7CA
:105500000298002180F83410FFE703208DF80F0087
:1055100016E0DFE70298C06D3F2101FA00F0019923
:1055200088600298012180F83510FFE70298002179
:1055300080F83410FFE7FFE700208DF80F00FFE749
:105540009DF80F0004B080BD82B00090009890F8E4
:105550003500022807D0FFE700988021416501202F
:105560008DF807000EE00098052180F835100098AE
:105570000068016821F001010160FFE700208DF85B
:105580000700FFE79DF8070002B0704780B586B0BE
:1055900005900020039040F23C00C2F20000006839
:1055A00048F2B511C1F64E31A0FB0101890A029102
:1055B0000599896D01910199096804910499059AE9
:1055C000D26DD140090700291BD5FFE70598006877
:1055D00000684007002813D5FFE7059800680168B8
:1055E00021F0040101600598C06D082101FA00F066
:1055F000019988600598416D41F001014165FFE71F
:10560000FFE704980599C96DC840C007002815D068
:10561000FFE7059800684069000600280DD5FFE700
:105620000598C06D012101FA00F001998860059884
:10563000416D41F002014165FFE7FFE704980599DC
:10564000C96DC8404007002815D5FFE705980068D8
:105650000068800700280DD5FFE70598C06D04217C
:1056600001FA00F0019988600598416D41F004014C
:105670004165FFE7FFE704980599C96DC840C0067A
:1056800000284BD5FFE70598006800680007002850
:1056900043D5FFE70598C06D102101FA00F001998C
:1056A0008860059800680068400300281CD5FFE763
:1056B000059800680068000300280AD4FFE70598F1
:1056C000006C002804D0FFE70598016C8847FFE7CD
:1056D00009E00598806C002804D0FFE70598816CEC
:1056E0008847FFE7FFE717E0059800680068C005F6
:1056F000002807D4FFE705980068016821F0080139
:105700000160FFE70598006C002804D0FFE70598CA
:10571000016C8847FFE7FFE7FFE7FFE7049805997B
:10572000C96DC8408006002840F19580FFE70598C4
:1057300000680068C006002840F18C80FFE70598EB
:10574000C06D202101FA00F001998860059890F859
:105750003500052838D1FFE705980068016821F079
:105760001601016005980068416921F080014161DE
:105770000598006C002805D1FFE70598806C00288B
:1057800007D0FFE705980068016821F00801016073
:10579000FFE70598C06D3F2101FA00F0019988608C
:1057A0000598012180F83510FFE70598002180F861
:1057B0003410FFE70598006D002804D0FFE7059836
:1057C000016D8847FFE781E00598006800684003A5
:1057D00000281CD5FFE70598006800680003002832
:1057E0000AD4FFE70598406C002804D0FFE705982D
:1057F000416C8847FFE709E00598C06B002804D09A
:10580000FFE70598C16B8847FFE7FFE721E00598B0
:1058100000680068C005002811D4FFE705980068FB
:10582000016821F0100101600598012180F8351010
:10583000FFE70598002180F83410FFE7FFE705989F
:10584000C06B002804D0FFE70598C16B8847FFE7CD
:10585000FFE7FFE7FFE70598406D002836D0FFE738
:105860000598406DC007002826D0FFE70598052160
:1058700080F8351005980068016821F00101016089
:10588000FFE70398013003900299884201D9FFE7AE
:1058900007E0FFE7059800680068C0070028F0D11E
:1058A000FFE70598012180F83510FFE705980021F2
:1058B00080F83410FFE7FFE70598C06C002804D09B
:1058C000FFE70598C16C8847FFE7FFE706B080BD9A
:1058D00080B586B004900020039000F033FB029066
:1058E0000498002804D1FFE701208DF81700A7E0F5
:1058F0000498406A002801D0FFE7FFE704980221DE
:1059000080F83510FFE70498002180F83410FFE795
:1059100004980068016821F001010160FFE7049824
:1059200000680068C007002812D0FFE700F00AFBFB
:105930000299401A06280AD3FFE7049820214165FE
:105940000498032180F835108DF8171078E0E6E709
:105950000498006800680390039848F23F01CFF272
:10596000100108400390049841688268C368D0F829
:1059700010C01143194341EA0C0142691143826985
:105980001143C2691143006A084303990843039015
:105990000498406A042808D1FFE70498C16A006BA4
:1059A0000843039908430390FFE7039804990968A3
:1059B00008600498006840690390039820F007008D
:1059C00003900498406A0399084303900498406A3E
:1059D00004281CD1FFE70498806A039908430390C8
:1059E0000498C06A002811D0FFE70498FEF7F0FA87
:1059F00000280AD0FFE7049840214165049801215E
:105A000080F835108DF817101AE0FFE7FFE70398CC
:105A10000499096848610498FEF7AEFA0190049869
:105A2000C06D3F2101FA00F00199886004980021BF
:105A300041650498012280F835208DF81710FFE7A2
:105A40009DF8170006B080BD80B584B0039000F0CB
:105A500079FA02900398019001980130002809D04A
:105A6000FFE740F20010C2F20000007801990844FC
:105A70000190FFE7FFE700F065FA0299401A0199EB
:105A8000884201D2FFE7F6E704B080BD80B582B05E
:105A90000146ADF80600BDF8060010281CD1FFE74E
:105AA00040F62E10C2F20000017841F001010170B1
:105AB00040F62D10C2F20000017841F001010170A2
:105AC00041F25210C2F200000078002803D0FFE734
:105AD0000CF060FBFFE719E0BDF80600202814D1A8
